:1000000000200010FD0F00000000000000000000B4
:1000100000000000000000000000000000000000E0
:1000200000000000000000000000000000000000D0
:1000300000000000000000000000000000000000C0
:1000400000000000000000000000000000000000B0
:1000500000000000000000000000000000000000A0
:100060000000000000000000000000000000000090
:100070000000000000000000000000000000000080
:100080000000000000000000000000000000000070
:100090000000000000000000000000000000000060
:1000A0000000000000000000000000000000000050
:1000B0000000000000000000000000000000000040
:1000C0000000000000000000000000000000000030
:1000D0000000000000000000000000000000000020
:1000E000000000002D010000000000009901000048
:1000F0000000000000000000000000000000000000
:1001000000000000000000000000000000000000EF
:1001100000000000000000000000000000000000DF
:100120000000000062B6704772B67047144B01229F
:1001300010B51A60134A1368591C116013F00701B7
:1001400016D11148114A4FF4807303601468104BA4
:100150001C6054685C6094689C60D468DC601469BE
:100160001C6154695C6194699C61D269DA610160C7
:10017000074A084B52F82120110C19601A6010BD73
:1001800000C000409409001000040150EC09001068
:1001900098090010080004402DE9F74F784B794C7E
:1001A00001274FF480651F60256000F015FC0023D7
:1001B0002360754B25601D687449EA191A6005F0C3
:1001C0000F0350225A43C5F3001C5318062101FBAC
:1001D0000CF118310092581893F9022046884FF01C
:1001E0001E0909FB02F9019693F90160DFF8BCB121
:1001F000002E09EB0B0404DB654EB75C003718BF1B
:1002000001275A5ABAB30FB905225A525E5A0CF155
:10021000010A04EBCA0A022E0AF10608019A11D05B
:1002200002D8012E27D104E0032E13D0052E22D1AF
:100230001BE0BAF8066092194FF6FF76B2421ADD5B
:1002400002220FE0013A4FF6F076B24213DC0326A9
:100250005E5210E0B8F80260921BB8F80460B24237
:1002600009DA04225A52324605E0B8F80660921BB9
:1002700001D500225A5242800AB9828012E04549D3
:10028000C2F3851631F8168002F03F0601EB4601F5
:10029000B1F8801001FB08F81113C1F11F0148FAF1
:1002A00001F18180BCF1000F38D1DA8A042AC4BF81
:1002B000818899829E8A81888E4208BF00220132FD
:1002C000DA825A8A0FB901211982198A51B939F88B
:1002D0000B1052184FF6FF718A4207DD01221A8275
:1002E0000A4603E06188521A22EAE2725A829AB1FF
:1002F0002849C2F3851002F03F0631F8100001EBE7
:100300004601B1F8801012134143C2F11F0241FAB5
:1003100002F2A1884A4312141A8514E0188C94F949
:100320000B20DB78A17A5A43921142434943D213FE
:1003300012EB112303D4FF2BA8BFFF2300E00023FF
:10034000009A12495354144B05F007051A68134BD1
:1003500023F81520124A116805F1080223F812103B
:10036000104A116805F1100223F8121001350E4BE6
:10037000AD0000221D60C3F8902FBDE8FE8F00BFC6
:100380000040014000100150E0020010E4020010A3
:100390000C0A00105412000010C00140BA090010ED
:1003A00014C0014018C0014070000150000100104D
:1003B000F0B55B4B90F902401E2505FB0435594E04
:1003C000437836F9144003F07F030C221B0393FBA0
:1003D000F2F394FBF2F29B186FF48F729B18524C5D
:1003E000C3F3851203F03F0634F8122004EB4604F1
:1003F000B4F8804062431C13C4F10A0442FA04F2C8
:1004000047F230544263520BA24205DCB2F5806FD2
:10041000B8BF4FF4806200E022460C7C6FF0F70C0E
:100420000CFB04FC4F7C0CF50046C7F17F07CCF5B4
:10043000004C07FB06F407FB0CF7E411FF11A24286
:10044000A8BF1446BA42B8BF3A46A718361B06EBF7
:10045000670686804FF4000696FBF2F296FBF4F4F2
:10046000C4800281CA79602A05D842F6E164202A54
:1004700088BF234600E02D4BCA788C78D20002EB6F
:10048000C412A2F508529B18274AC3F3851403F03F
:100490003F0632F8144002EB4602B2F880201B13EC
:1004A0006243C3F10A0342FA03F347F23052836313
:1004B0005B0B934205DCB3F5806FB8BF4FF48063EC
:1004C00000E013460A786FF0F7065643497806F5C0
:1004D0000044C1F17F01C6F5004601FB04F27143FF
:1004E000D211C9119342A8BF1A468B42B8BF0B461E
:1004F000D118A41A04EB61044FF4000191FBF2F24D
:1005000091FBF3F38281C381EA88C37844815A4323
:10051000D21182842A895343DB11C384F0BD00BF0A
:10052000000100107409001054120000E1EEFFFFFA
:100530005B4A2DE9F8430746182404FB07241E25CF
:100540004543A27957482B184AB1574902F00F0684
:1005500031F836101211C2F1070241FA02F29A8004
:1005600022794FF6FF7152431211013291FBF2F2E0
:100570002A5262797F2A02D100225A8004E0524333
:10058000013291FBF2F15980227B5243111101316A
:100590004FF6FF7292FBF1F1D981617B4943013142
:1005A00092FBF1F11982A17B11B1C901A1F5804142
:1005B0005982E17B4943013192FBF1F19982217A21
:1005C00049430911013192FBF1F1D982617A494322
:1005D000013192FBF1F21A83A27A4AB1324902F058
:1005E0000F0031F830101211C2F1070241FA02F285
:1005F0005A83E27A4FF6FF715243013291FBF2F2D5
:100600009A83227D52009A72E27C5200803ADA721A
:10061000627D6FEA42021A73A27C1F2A01D800226F
:1006200004E0602A01D9022200E001225A73A27D6F
:100630004AB11D4902F00F0031F830101211C2F119
:10064000070241FA02F2E07D174920F00100C0F1F3
:10065000FE0501EB4505B5F9005101EB4001B1F98B
:10066000001255434A43ED13DD80D2130025DFF815
:100670003C801A812E464FF0500905EB080393F990
:100680000230BB4204D109FB06802146FFF790FEF1
:1006900050350136B5F5A06FEFD1BDE8F88300BF46
:1006A000E40700100001001054120000E4020010E2
:1006B00002E000F8011C013A0130002AF9DC704721
:1006C000F8B5FFF731FD524A00231360514A40F25A
:1006D0001C511360504A1160504A4FF46D41116033
:1006E000A2F50C722521116001219163D3634C4B5B
:1006F000D1631A68D107FCD54A4B4B4A0124002527
:1007000003271F605D605C601A61484AC12616605D
:1007100042F8046C464A29461A614FF0FF3243F80A
:100720006C2C44482022FFF7C3FF29462022424870
:10073000FFF7BEFF294610224048FFF7B9FF2946C0
:1007400020223F48FFF7B4FF29463E484FF4A062FD
:10075000FFF7AEFF40213C484FF4C072FFF7A8FFFF
:10076000214610223948FFF7A3FF294638484FF4A5
:10077000F072FFF79DFF374B08221C6043F8042CF2
:10078000354AC2231360C02156609360022353612F
:100790009361D36116621663516342F8286C2F4946
:1007A0002F4A072011602F490F220A600B614B600E
:1007B0002D490D600C6008602C493F200A60C8601C
:1007C0002B488F60302101602A480460C460836038
:1007D000294B1960294B1A6002F5F872DA604FF460
:1007E000DB729F6043F8042C254A264B1A604FF4B5
:1007F0002062A3F549731A60234B1C6003F5804304
:100800001C6003F580431C60BDE8F840FFF78ABC1C
:10081000E00200109409001000800150388204406A
:100820000C80044070800440DF2B0100A84004408D
:10083000DF3B010098090010EC0900100C0A0010C1
:1008400074090010E4020010E407001064090010AD
:10085000000100109880044060400440073F010000
:1008600000C0014000000440088000400CC000406F
:100870003CC000400C0001403C0001400C400140E5
:100880000040008028E400E004C00040044B8322C4
:100890001A60044A00211060516003221A607047F8
:1008A0000C80004000800040034B1A689206FCD583
:1008B000024B1860704700BF148000400080004069
:1008C0002DE9F84F2B4F2C4D2C4EDFF8BCB00024F7
:1008D00097F800C02B782A4A0021DFF8A890DFF8AB
:1008E000AC8007E0DBF80000F72803DC09F8030020
:1008F0000133DBB23068C007F4D49C450BD01E4AEC
:100900001370204B13F80C001A4B0CF1010C83F8F8
:1009100000C0BDE8F88F12F801AB31F808004FEACB
:100920004A2A0AF13F0A8245A4BF4FEA502A02F838
:1009300001AC12F801AC4FEA4A2A0AF5607A504538
:1009400002DD400A02F8010C02313029D2D1DFF871
:1009500040802B70012388F8003018F8043013B160
:100960002046FFF7E5FD002308F80430013404F0C9
:100970000F04ADE7B8090010EA0900101480004028
:10098000E40700100000001000800040BA090010C9
:100990006409001010B50446FFF7C6FB00230121CF
:1009A0000F2223836383A383E38323846384E3820B
:1009B0002182638223856385E364E3632370A270ED
:1009C000A382A364E3626363A36363642364BDE8F7
:1009D0001040FFF7A7BB00BF2DE9F05F84B0DFF840
:1009E000080600210022002300241EC01EC0DFF8DC
:1009F000FC055FF4800C83781E22DFF8F41502FBFF
:100A00000311026B876BB0F80A80B0F80C90B0F855
:100A10000EA0DFF8E0B5468D91F80DE0BEF1010FB4
:100A200000F37380D219130CA8EB030404FB0AF43F
:100A300003FB09F56445A8BF2C4614EB0C0FD8BF87
:100A4000A5EB0944C4F3852524F306445BF8244050
:100A500023B26C4303EB945474430094D219130CE7
:100A6000A8EB030404FB0AF403FB09F56445A8BFE3
:100A70002C4614EB0C0FD8BFA5EB0944C4F3852515
:100A800024F306445BF8244023B26C4303EB9454F4
:100A900074430194D219130CA8EB030404FB0AF469
:100AA00003FB09F56445A8BF2C4614EB0C0FD8BF17
:100AB000A5EB0944C4F3852524F306445BF82440E0
:100AC00023B26C4303EB945474430294D219130C75
:100AD000A8EB030404FB0AF403FB09F56445A8BF73
:100AE0002C4614EB0C0FD8BFA5EB0944C4F38525A5
:100AF00024F306445BF8244023B26C4303EB945484
:100B000004FB06F3039300F07BB8C46BD21902EB2D
:100B100004231B0CA8EB030404FB0AF403FB09F5F4
:100B20006445A8BF2C4614EB0C0FD8BFA5EB0944B5
:100B3000C4F3852524F306445BF8244023B26C43B8
:100B400003EB945474430094D21902EB04231B0C5E
:100B5000A8EB030404FB0AF403FB09F56445A8BFF2
:100B60002C4614EB0C0FD8BFA5EB0944C4F3852524
:100B700024F306445BF8244023B26C4303EB945403
:100B800074430194D21902EB04231B0CA8EB030459
:100B900004FB0AF403FB09F56445A8BF2C4614EBDB
:100BA0000C0FD8BFA5EB0944C4F3852524F30644F4
:100BB0005BF8244023B26C4303EB945474430294D7
:100BC000D21902EB04231B0CA8EB030404FB0AF468
:100BD00003FB09F56445A8BF2C4614EB0C0FD8BFE6
:100BE000A5EB0944C4F3852524F306445BF82440AF
:100BF00023B26C4303EB945404FB06F30393C363E7
:100C00000263068DC36C634048BF4685C464C26AF4
:100C1000476BB0F80480B0F80690B0F808A0BEF1B9
:100C2000000F00F37980D219130CA8EB030404FB26
:100C30000AF403FB09F56445A8BF2C4614EB0C0F1E
:100C4000D8BFA5EB0944C4F3852524F306445BF81B
:100C5000244023B26C4303EB9454009B04EBA33475
:100C60000094D219130CA8EB030404FB0AF403FB51
:100C700009F56445A8BF2C4614EB0C0FD8BFA5EBB3
:100C80000944C4F3852524F306445BF8244023B2C9
:100C90006C4303EB9454019B04EBA3340194D219ED
:100CA000130CA8EB030404FB0AF403FB09F56445E9
:100CB000A8BF2C4614EB0C0FD8BFA5EB0944C4F316
:100CC000852524F306445BF8244023B26C4303EBF0
:100CD0009454029B04EBA3340294D219130CA8EB96
:100CE000030404FB0AF403FB09F56445A8BF2C4682
:100CF00014EB0C0FD8BFA5EB0944C4F3852524F3EE
:100D000006445BF8244023B26C4303EB9454039BEA
:100D100004EBA33B00F079B8009CD21902EB04135A
:100D20001B0CA8EB030404FB0AF403FB09F5644560
:100D3000A8BF2C4614EB0C0FD8BFA5EB0944C4F395
:100D4000852524F306445BF8244023B26C4303EB6F
:100D500094540094019CD21902EB04131B0CA8EBD1
:100D6000030404FB0AF403FB09F56445A8BF2C4601
:100D700014EB0C0FD8BFA5EB0944C4F3852524F36D
:100D800006445BF8244023B26C4303EB9454019473
:100D9000029CD21902EB04131B0CA8EB030404FB06
:100DA0000AF403FB09F56445A8BF2C4614EB0C0FAD
:100DB000D8BFA5EB0944C4F3852524F306445BF8AA
:100DC000244023B26C4303EB94540294039CD21945
:100DD00002EB04131B0CA8EB030404FB0AF403FB53
:100DE00009F56445A8BF2C4614EB0C0FD8BFA5EB42
:100DF0000944C4F3852524F306445BF8244023B258
:100E00006C4303EB94545FEA040BC2629DE8000755
:100E100002780B7B046C456C02FB05F73F125743CD
:100E200004EB272403FB05F7A8EB27273F1B5743B9
:100E30003F12574305EB272504F3100802FB05F783
:100E40003F12574304EB272403FB05F7A9EB2727A1
:100E50003F1B57433F12574305EB272504F3100967
:100E600002FB05F73F12574304EB272403FB05F76A
:100E7000AAEB27273F1B57433F12574305EB272574
:100E800004F3100A02FB05F73F12574304EB272433
:100E900003FB05F7ABEB27273F1B57433F12574395
:100EA00005EB272504F3100B04644564DFF838E1F3
:100EB000828CC38C876CC0F848B01FB197EA080FCA
:100EC00000F13180848A6243120C63431B0C98EA60
:100ED000090F00F1328099EA0A0F00F148809AEA7E
:100EE0000B0F00F15A809EE8F00002FB084403FB60
:100EF000085502FB096603FB0977AEE8F0009EE89F
:100F0000F00002FB0A4403FB0A5502FB0B6603FBDD
:100F10000B77AEE8F0005030374988427FF46BAD74
:100F200004B0BDE8F09F848B8482828CC38C6243C2
:100F3000120C63431B0CFFF7D6BF9EE8300002FB88
:100F4000084403FB0855AEE83000848B8482828C11
:100F5000C38C6243120C63431B0C9EE8300002FBFF
:100F6000094403FB0955AEE83000FFF7C8BF9EE80F
:100F7000F00002FB084403FB085502FB096603FB73
:100F80000977AEE8F000848B8482828CC38C624344
:100F9000120C63431B0CFFF7B2BF9EE8F00002FB8C
:100FA000084403FB085502FB096603FB0977AEE81A
:100FB000F0009EE8300002FB0A4403FB0A55AEE84D
:100FC0003000848B8482828CC38C6243120C634316
:100FD0001B0C9EE8300002FB0B4403FB0B55AEE8F4
:100FE0003000FFF798BF0000EC090010E402001089
:0C0FF0000001001054140000E407001081
:100FFC002DE9F74FFFF75EFB9020FFF741FC894D81
:10100C000024502606FB04500134FFF7BDFC102CC5
:10101C00F8D101E0136801E08349844A0B6813F0AE
:10102C000103F7D1824A4FF090081370814A824E27
:10103C0013707C4DDFF80CA209E0FFF73BFC7F2816
:10104C00FBDD04462046F02800F0C9808046FFF7FF
:10105C0031FC7F2881460446F4DCFFF72BFC7F280B
:10106C00EFDC08F0F003902B08F00F0408D002DC42
:10107C00802BE2D106E0B02B5ED0E02BDDD18DE0F1
:10108C00834601E04FF0000B00214FF0FF370B4679
:10109C004FF0500E0EFB0352108B50B192F902C060
:1010AC00A44507D192F801C00CF07F0CCC4501D1BE
:1010BC000AE00620528B0004801AB842C4BF0746CF
:1010CC0019460133102BE5D1BBF1000F09D1102BC0
:1010DC00BDD0502707FB03535A7802F07F025A7099
:1010EC00B5E7102B4FF0500702D007FB035704E075
:1010FC0007FB01573846FFF747FC69F07F09FFF7FC
:10110C000DF887F80190BC7087F803B0FFF704F86E
:10111C001821384601FB0461FFF744F9FEF7FEFF86
:10112C0001233B83FB830023FB823B827B823B8539
:10113C00BB64FEF7F1FF8AE7B9F1780F02D0B9F181
:10114C007A0F09DD0024502707FB04500134FFF708
:10115C001BFC102CF8D17AE7B9F1400F02D1374BB8
:10116C00185574E7A9F110030F2B08D8182303FBAB
:10117C0004634B4403F8100C01230AF80430A9F162
:10118C006603072B3FF663AF182303FB04634B4442
:10119C0003F8560C01230AF8043058E74FF0180BEB
:1011AC000BFB046BA9F50059254B09EBC01000276C
:1011BC0023F81400B94650237A1992F90220A2425E
:1011CC0006D103FB095059460193FFF7EBF8019B3D
:1011DC005037B7F5A06F09F10109EDD137E7FFF7EB
:1011EC0069FB7F283FF72FAF7D2804467FF425AF9E
:1011FC00FFF760FB012807467FF41FAFF020FFF7D5
:10120C004DFB2046FFF74AFB3846FFF747FB00240F
:10121C00305D0134FFF742FB182CF9D1F720FFF7B2
:10122C003DFB0AE7E40200101480004000800040FF
:10123C00B8090010EA090010E40700100C0A0010AD
:08124C00740900106409001090
:1012540000806581CE823A84AB851F879888158A81
:10126400968B1B8DA48E3290C4915A93F5949496C8
:101274003898E0998D9B3F9DF59EB0A070A235A44F
:10128400FFA5CEA7A1A97AAB58AD3BAF24B112B349
:1012940005B5FEB6FCB8FFBA09BD18BF2CC147C3DB
:1012A40067C58DC7BAC9ECCB25CE63D0A8D2F3D419
:1012B40045D79DD9FCDB61DECDE040E3B9E539E8F3
:1012C400C1EA4FEDE5EF81F225F5D1F784FA3EFD51
:1012D400008006800B80118016801C80218027806E
:1012E4002C80328037803D80438048804E805380FC
:1012F40059805E8064806A806F8075807A80808087
:1013040085808B80908096809C80A180A780AC8013
:10131400B280B880BD80C380C880CE80D380D9809D
:10132400DF80E480EA80EF80F580FA800081068126
:101334000B81118116811C81228127812D813281AB
:1013440038813E81438149814E8154815A815F8134
:101354000180000001800A000B801F002A803300F6
:101364005D804700A4805B00FF8070006F81840073
:10137400F38198008B82AC003783BF00F683D400DE
:10138400CA84E700B185FA00AB860E01B987210152
:10139400DA8834010E8A4701558B5901AE8C6C01F1
:1013A4001A8E7D01978F90012791A101C892B301F4
:1013B4007B94C4013F96D4011398E501F899F60192
:1013C400EE9B0502F39D150208A024022CA2330211
:1013D4005FA44202A1A65002F1A85E024FAB6B02C9
:1013E400BAAD780232B08502B7B2910248B59E0216
:1013F400E6B7A8028EBAB40242BDBF0201C0C80259
:10140400C9C2D2029BC5DC0277C8E4025BCBED0201
:1014140048CEF5023DD1FC0239D403033CD70A037C
:1014240046DA0F0355DD16036BE01A0385E31E034A
:10143400A3E62303C6E92603ECEC2A0316F02B03E8
:1014440041F32E036FF630039FF93003CFFC3103D1
:1014540000003103310330036106300391092E0388
:10146400BF0C2B03EA0F2A03141326033A16230393
:101474005D191E037B1C1A03951F1603AB220F0371
:10148400BA250A03C4280303C72BFC02C32EF502A2
:10149400B831ED02A534E4028937DC02653AD202A0
:1014A400373DC802FF3FBF02BE42B4027245A802E4
:1014B4001A489E02B84A9102494D8502CE4F7802DD
:1014C40046526B02B1545E020F5750025F594202FA
:1014D400A15B3302D45D2402F85F15020D6205029C
:1014E4001264F6010866E501ED67D401C169C4011F
:1014F400856BB301386DA101D96E900169707D01CE
:10150400E6716C0152735901AB744701F2753401F1
:101514002677210147780E015579FA004F7AE700C2
:10152400367BD4000A7CBF00C97CAC00757D980072
:101534000D7E8400917E7000017F5B005C7F47001C
:10154400A37F3300D67F1F00F57F0A00FF7F0000D2
:10155400040000001400000003000000474E550082
:101564000CDB29FC64E0A6A2FDE0DEC2D5E9E99F1C
:041574003194167F19
:00000001FF
